:020000040000FA
:10000000FE0E2500DF0C0200080C0600000C270085
:10001000E3060F0A630783062D0A0400790A040029
:10002000020C26001904460500004604000046059F
:1000300000004604DF0C0200070C3000A10C310068
:10004000130243062D0A980143072D0A490C930019
:1000500003062D0A13023200770A0400020C260060
:100060001904460500004604090C06004605410C2B
:100070002700CB09CB09CB09270527063D0A4604F3
:10008000000C2700080C060008023400BA09E60C30
:1000900094000306690ACE0C94000306670ABA0CA2
:1000A00094000306650AA40C94000306630A8C0CF2
:1000B00094000306610A510C940003076B0A010CBB
:1000C0006C0A060C6C0A0C0C6C0A240C6C0A300CC2
:1000D0006C0A480C6C0A180C33003800BA09070C7B
:1000E0003000030C3100010C3200650CBA09060225
:1000F000030019077E0A180C0200980AF002770A1A
:10010000070C3000F102980AA10C3100F202980AA3
:1001100013023200460500004604000046050000B8
:100120004604000046050000460426041905770A27
:100130000D0C2700CB094605CB0946040000000042
:1001400027052706A10A000C270008023500260C07
:1001500095000307B30A26051906100ADF0C0200F2
:10016000070C3000B70A26041905180C0200150206
:10017000BA09770A3600080C3700460576034604AC
:100180000307C30A460500000000F702BD0A00008D
:08019000000000004604000815
:021FFE00E70FEB
:00000001FF
